:05001D0073746F700018
:0701A100C100C101010800CB
:1000030075985075CBFF75CAD985CBCD85CACC758C
:0A001300C834E4F5C9D2ACD2AF2224
:1001540030010BC2AC8F993099FDC299D2ACC20167
:010164002278
:10013200E4FFFE30001BC200EF90001D936012C26C
:10014200ACF5993099FDC2990FBF00010ED2AC8077
:01015200E7C5
:010153002289
:08019900120003E4F58080FE72
:030023000200B226
:1000B200C0E0C0F0C083C082C0D075D000C000C014
:0D00C20001C002C003C004C005C006C00795
:1000CF00750900309840C298859908D201E5082437
:1000DF00CE60111460151460192403701F1201658E
:1000EF007F3180131201727F32800C12018C7F33AB
:1000FF00800512017F7F34120154800C1201A9D2A6
:08010F00001201328002C299C6
:10011700D007D006D005D004D003D002D001D0003C
:0B012700D0D0D082D083D0F0D0E032E6
:0D016500D294D295D290C291D292C2932230
:0D017200D294D295C290D291C292D2932223
:0D017F00D294D295C290D291D292C2932216
:0D018C00D294D295D290C291C292D2932209
:0501A900C294C2952282
:03000000020026D5
:0C002600787FE4F6D8FD75812002006DA3
:10003200020199E493A3F8E493A34003F68001F24A
:1000420008DFF48029E493A3F85407240CC8C333CF
:10005200C4540F4420C8834004F456800146F6DF9E
:10006200E4800B01020408102040809001A1E47E8C
:10007200019360BCA3FF543F30E509541FFEE49393
:10008200A360010ECF54C025E060A840B8E493A35A
:10009200FAE493A3F8E493A3C8C582C8CAC583CA85
:1000A200F0A3C8C582C8CAC583CADFE9DEE780BE3D
:0101A8000056
:00000001FF
